:1000000090C00000BEC00000BCC00000BAC000002C
:10001000B8C00000B6C00000B4C00000B2C000000C
:10002000B0C00000AEC00000ACC00000AAC000001C
:10003000A8C00000A6C00000A4C00000A2C000002C
:10004000A0C000009EC000009CC000009AC000003C
:1000500098C0000096C0000094C00000FDC50000DC
:1000600090C000004CC2000080C200008AC00000A6
:1000700088C0000086C0000084C0000082C000006C
:1000800080C000007EC000007CC000007AC000007C
:1000900078C0000076C0000074C0000072C000008C
:1000A00070C000006EC000006CC000006AC000009C
:1000B00068C0000066C0000064C0000062C00000AC
:1000C00060C000005EC000005CC000005AC00000BC
:1000D00058C0000056C0000054C0000052C00000CC
:1000E00050C000004E414E494E495459494E46CDEC
:1000F000CCCC3D0AD7233C17B7D13877CC2B3295DF
:1001000095E6241FB14F0A000020410000C84200BC
:10011000401C4620BCBE4CCA1B0E5AAEC59D740086
:10012000E70211241FBECFEFD1E2DEBFCDBF00E05A
:100130000CBF12E0A0E0B2E0EAEDF9E100E00BBF95
:1001400002C007900D92A434B107D9F722E0A4E4CD
:10015000B2E001C01D92A03FB207E1F711E0C2E298
:10016000D1E000E006C022970109FE010BBF0E940A
:100170002F09C032D10780E00807A9F763D50C9496
:10018000EB0C3ECF26E040E855E260E070E084E40E
:1001900092E055D148E853E160E070E084E492E0F9
:1001A00063D466E072E084E492E09DD28FEF8093A6
:1001B00002010895CF92DF92EF92FF92CF93DF93E7
:1001C00000D000D0CDB7DEB784E492E029D0892BEF
:1001D000D1F04DE064E472E0CE0101964BD4CE0143
:1001E000019625D56B017C0169E172E084E492E01F
:1001F0006FD222E030E0B701A60184E492E0F8D3A8
:10020000CE0101965BD426960FB6F894DEBF0FBEE2
:10021000CDBFDF91CF91FF90EF90DF90CF90089509
:10022000FC01818D228D90E0805C9F4F821B9109A3
:100230008F7399270895FC01918D828D981731F065
:10024000828DE80FF11D858D90E008958FEF9FEF6F
:100250000895FC01918D828D981761F0828DDF01E8
:10026000A80FB11D5D968C91928D9F5F9F73928FA9
:1002700090E008958FEF9FEF08958EED92E0892B27
:1002800039F080E090E0892B19F098D1811125C0D8
:1002900080E090E0892B41F080E090E0892B21F014
:1002A0000E94000081111CC080E090E0892B41F089
:1002B00080E090E0892B21F00E940000811113C0A2
:1002C00080E090E0892BA1F080E090E0892B81F024
:1002D0000E94000081110AC008950E940000D8CF3A
:1002E0000E940000E1CF0E940000EACF0C940000C1
:1002F0000895FC01848DDF01A80FB11DA35ABF4FE3
:100300002C91848D90E001968F739927848FA68914
:10031000B7892C93A089B1898C9180648C93938D3B
:10032000848D981306C00288F389E02D80818F7D2B
:1003300080830895CF93DF93EC01888D8823C1F0EB
:10034000EA89FB89808185FD05C0A889B9898C91DE
:1003500086FD0EC00FB607FCF5CF808185FFF2CF7A
:10036000A889B9898C9185FFEDCFCE01C2DFE8CF96
:10037000DF91CF910895CF92DF92FF920F931F9359
:10038000CF93DF931F92CDB7DEB76C0181E0D6012A
:1003900058968C9358975B969C915B975C968C9142
:1003A0005C97981307C05096ED91FC91519780810E
:1003B00085FD2DC0F601038D10E00F5F1F4F0F73F9
:1003C0001127F02EF601848DF81210C00FB607FC2D
:1003D000F9CFD6015096ED91FC915197808185FF20
:1003E000F1CFC601698385DF6981ECCF838DE80F8A
:1003F000F11DE35AFF4F6083D6015B960C935B9728
:100400005296ED91FC915397808180620CC0D60189
:100410005696ED91FC91579760835096ED91FC9123
:10042000519780818064808381E090E00F90DF911C
:10043000CF911F910F91FF90DF90CF900895BF92C1
:10044000CF92DF92EF92FF92CF93DF93EC016A019C
:100450007B01B22EE889F98982E08083411581EE23
:1004600058076105710599F060E079E08DE390E04F
:10047000A7019601C8D62150310941095109569565
:10048000479537952795211580E1380790F0E88941
:10049000F989108260E874E88EE190E0A701960186
:1004A000B2D62150310941095109569547953795E2
:1004B0002795EC85FD853083EE85FF852083188E9A
:1004C000EC89FD89B082EA89FB8980818061808323
:1004D000EA89FB89808188608083EA89FB89808141
:1004E00080688083EA89FB8980818F7D8083DF91AA
:1004F000CF91FF90EF90DF90CF90BF9008951F9223
:100500000F920FB60F9211240BB60F922F938F9369
:100510009F93EF93FF93E0915402F09155028081F5
:10052000E0915A02F0915B0282FD12C090818091AD
:100530005D028F5F8F7320915E02821751F0E09110
:100540005D02F0E0EC5BFD4F958F80935D0201C092
:100550008081FF91EF919F918F912F910F900BBE12
:100560000F900FBE0F901F9018951F920F920FB60D
:100570000F9211240BB60F922F933F934F935F93DB
:100580006F937F938F939F93AF93BF93EF93FF935B
:1005900084E492E0AEDEFF91EF91BF91AF919F9125
:1005A0008F917F916F915F914F913F912F910F901C
:1005B0000BBE0F900FBE0F901F90189584E492E031
:1005C0002FDE21E0892B09F420E0822F089510927C
:1005D00047021092460288EE93E0A0E0B0E08093DC
:1005E000480290934902A0934A02B0934B0287E2DB
:1005F00092E0909345028093440285EC90E09093C2
:1006000051028093500284EC90E0909353028093C7
:10061000520280EC90E0909355028093540281EC5A
:1006200090E0909357028093560282EC90E0909372
:1006300059028093580286EC90E090935B0280937D
:100640005A0210925D0210925E0210925F021092A6
:1006500060020895CF92DF92EF92FF920F931F9363
:10066000CF93DF937C016A01EB0100E010E00C15F1
:100670001D0571F06991D701ED91FC910190F08118
:10068000E02DC7011995892B19F00F5F1F4FEFCF90
:10069000C801DF91CF911F910F91FF90EF90DF90F4
:1006A000CF9008956115710581F0DB010D90002058
:1006B000E9F7AD0141505109461B570BDC01ED91A3
:1006C000FC910280F381E02D199480E090E0089580
:1006D000E9CFDC01ED91FC910190F081E02D1994BE
:1006E00063E372E0DFCF0F931F93CF93DF93EC01AF
:1006F000D9DF8C01CE01F4DF800F911FDF91CF9104
:100700001F910F9108958F929F92AF92BF92CF92B7
:10071000DF92EF92FF920F931F93CF93DF93CDB7AA
:10072000DEB7A1970FB6F894DEBF0FBECDBF7C0138
:10073000C42EE52FCB01D22E19A221E02D1510F0E9
:100740002AE0D22E8E010F5D1F4F8D2C912CA12CF3
:10075000B12C6C2D7E2FA501940155D58C2DD29EE8
:1007600080191124015011098A3014F4805D01C0F0
:10077000895CF8018083211531054105510521F07F
:10078000C22EE32FCA01E5CFB801C7018BDFA196C6
:100790000FB6F894DEBF0FBECDBFDF91CF911F9192
:1007A0000F91FF90EF90DF90CF90BF90AF909F9010
:1007B0008F900895CF92DF92EF92FF920F931F9345
:1007C000CF93DF93EC016A017B012115310579F4A8
:1007D000E881F9810190F081E02D642FDF91CF91C4
:1007E0001F910F91FF90EF90DF90CF9019942A30D6
:1007F0003105D9F477FF18C06DE26BDF8C01442717
:100800005527BA014C195D096E097F092AE0CE010E
:100810007ADF800F911FDF91CF911F910F91FF9091
:10082000EF90DF90CF9008952AE0B701A601CE01A6
:10083000DF91CF911F910F91FF90EF90DF90CF90BC
:1008400062CF4F925F926F927F928F929F92AF9200
:10085000BF92CF92DF92EF92FF920F931F93CF93AD
:10086000DF93EC016A017B01B22E9A01AB01C70153
:10087000B601C5D4882319F066E372E024C02601CE
:100880003701E89477F82FEF3FEF4FE75FE7C301B9
:10089000B201B5D481110CC02FEF3FEF4FE75FE7F6
:1008A000C301B201F6D218161CF46AE372E00BC061
:1008B0002FEF3FEF4FE75FE4C701B60139D41816B9
:1008C000A4F46EE372E0CE01DF91CF911F910F91FE
:1008D000FF90EF90DF90CF90BF90AF909F908F9060
:1008E0007F906F905F904F90DDCE2FEF3FEF4FE7FF
:1008F0005FECC701B601CDD287FDE3CF20E030E049
:10090000A901C701B601C5D287FF09C06DE2CE01BA
:10091000E0DE8C01F7FAF094F7F8F09402C000E002
:1009200010E0A12C60E070E080E09FE3AB1439F0B0
:1009300020E030E040E251E4B0D2A394F7CF9B0135
:10094000AC01C701B60141D26B017C0113D32B016D
:100950003C013CD39B01AC01C701B60135D26B0110
:100960007C012AE0B301A201CE01CDDE080F191FE0
:10097000BB2031F062E472E0CE0194DE080F191F53
:100980007B2C772019F120E030E040E251E4C701F0
:10099000B601D2D36B017C01E8D24B01AA2497FCAB
:1009A000A094BA2C2AE030E0B501A401CE0102DF08
:1009B000080F191FC501B4010BD39B01AC01C7017E
:1009C000B60102D26B017C017A94DBCFC801DF91C2
:1009D000CF911F910F91FF90EF90DF90CF90BF903C
:1009E000AF909F908F907F906F905F904F90089501
:1009F0000F931F93CF93DF93EC0123DF8C01CE0184
:100A00006FDE800F911FDF91CF911F910F9108959D
:100A10000F931F93CF93DF93EC0168D16887798799
:100A20008A879B87E881F9810680F781E02DCE01D6
:100A3000199597FF14C05AD1088519852A853B85D9
:100A4000601B710B820B930B0C811D812E813F81EA
:100A5000601771078207930728F38FEF9FEFDF91ED
:100A6000CF911F910F910895FC01448355836683B4
:100A700077830895EF92FF920F931F93CF93DF93A5
:100A8000EC018B01E42E65E372E07FD0C801C0DF8A
:100A9000FF24E7FCF09497FD09C08E159F0531F007
:100AA000682FCE01B1D0C801B3DFF5CFCE01DF9101
:100AB000CF911F910F91FF90EF900895FC018081DD
:100AC000918178C4CF93DF93EC018881998100975D
:100AD00009F070D4198218821D821C821B821A822E
:100AE000DF91CF9108950F931F93CF93DF93EC0184
:100AF0008B016F5F7F4F88819981EBD4009731F034
:100B0000998388831B830A8381E001C080E0DF91A1
:100B1000CF911F910F910895CF93DF93EC018881BE
:100B20009981892B29F08A819B818617970758F430
:100B3000CE01D9DF882341F08C819D81892B19F466
:100B4000E881F981108281E0DF91CF910895EF92E1
:100B5000FF920F931F93CF93DF93EC017B018A01E8
:100B6000BA01DADF811103C0CE01ACDF06C01D83FC
:100B70000C83B70188819981A4D5CE01DF91CF91F3
:100B80001F910F91FF90EF900895FC011182108248
:100B900013821282158214826115710551F0FB01D6
:100BA00001900020E9F7AF0141505109461B570B56
:100BB000CECF0895EF92FF920F931F93CF93DF93C1
:100BC000EC017B010C811D816115710511F480E040
:100BD00014C04115510581F0040F151FB8019CDFA9
:100BE0008823A9F3288139818C819D81B701820FE7
:100BF000931F67D51D830C8381E0DF91CF911F91F7
:100C00000F91FF90EF900895CF93DF931F921F9263
:100C1000CDB7DEB769831A8241E050E0BE016F5F55
:100C20007F4FC8DF0F900F90DF91CF910895FC01A7
:100C300080819181009709F030C560E070E0CB01C0
:100C4000089508955FD0FDDF9DDACDE3D1E0B2DAFB
:100C50002097E9F312DBFBCF1F920F920FB60F9292
:100C600011242F933F938F939F93AF93BF938091C2
:100C7000E2029091E302A091E402B091E50230918A
:100C8000E10223E0230F2D3720F40196A11DB11DB1
:100C900005C026E8230F0296A11DB11D2093E10295
:100CA0008093E2029093E302A093E402B093E50202
:100CB0008091E6029091E702A091E802B091E902EA
:100CC0000196A11DB11D8093E6029093E702A093C7
:100CD000E802B093E902BF91AF919F918F913F914C
:100CE0002F910F900FBE0F901F9018952FB7F8946B
:100CF0006091E2027091E3028091E4029091E5023A
:100D00002FBF0895789484B5826084BD84B58160D6
:100D100084BD85B5826085BD85B5816085BDEEE603
:100D2000F0E0808181608083E1E8F0E010828081E2
:100D300082608083808181608083E0E8F0E0808150
:100D400081608083E1EBF0E0808184608083E0EB70
:100D5000F0E0808181608083E1E9F0E08081826061
:100D60008083808181608083E0E9F0E08081816020
:100D70008083E1EAF0E0808182608083808181600D
:100D80008083E0EAF0E0808181608083E1E2F1E04D
:100D9000808182608083808181608083E0E2F1E0F5
:100DA000808181608083EAE7F0E0808184608083D5
:100DB000808182608083808181608083808180687F
:100DC00080831092C10008955058BB27AA270ED0E7
:100DD00075C166D130F06BD120F031F49F3F11F432
:100DE0001EF45BC10EF4E095E7FB51C1E92F77D10A
:100DF00080F3BA17620773078407950718F071F438
:100E00009EF58FC10EF4E0950B2EBA2FA02D0B018D
:100E1000B90190010C01CA01A0011124FF27591B3F
:100E200099F0593F50F4503E68F11A16F040A22F45
:100E3000232F342F4427585FF3CF469537952795B6
:100E4000A795F0405395C9F77EF41F16BA0B620BB5
:100E5000730B840BBAF09150A1F0FF0FBB1F661FFC
:100E6000771F881FC2F70EC0BA0F621F731F841F3F
:100E700048F4879577956795B795F7959E3F08F065
:100E8000B3CF9395880F08F09927EE0F9795879524
:100E90000895D9D008F481E008950CD00FC107D18E
:100EA00040F0FED030F021F45F3F19F0F0C0511156
:100EB00039C1F3C014D198F39923C9F35523B1F381
:100EC000951B550BBB27AA2762177307840738F0B9
:100ED0009F5F5F4F220F331F441FAA1FA9F333D018
:100EE0000E2E3AF0E0E830D091505040E695001CCC
:100EF000CAF729D0FE2F27D0660F771F881FBB1F88
:100F0000261737074807AB07B0E809F0BB0B802D61
:100F1000BF01FF2793585F4F2AF09E3F510568F0AD
:100F2000B6C000C15F3FECF3983EDCF38695779541
:100F30006795B795F7959F5FC9F7880F911D9695AF
:100F4000879597F90895E1E0660F771F881FBB1F0B
:100F5000621773078407BA0720F0621B730B840BB8
:100F6000BA0BEE1F88F7E095089504D06894B1118C
:100F7000D9C00895BCD088F09F5790F0B92F992719
:100F8000B751A0F0D1F0660F771F881F991F1AF094
:100F9000BA95C9F712C0B13081F0C3D0B1E008955D
:100FA000C0C0672F782F8827B85F39F0B93FCCF3DE
:100FB000869577956795B395D9F73EF4909580958A
:100FC000709561957F4F8F4F9F4F0895E89409C0AA
:100FD00097FB3EF490958095709561957F4F8F4F6C
:100FE0009F4F9923A9F0F92F96E9BB279395F69582
:100FF000879577956795B795F111F8CFFAF4BB0F00
:1010000011F460FF1BC06F5F7F4F8F4F9F4F16C063
:10101000882311F096E911C0772321F09EE8872FED
:10102000762F05C0662371F096E8862F70E060E0A9
:101030002AF09A95660F771F881FDAF7880F969522
:10104000879597F90895990F0008550FAA0BE0E8C6
:10105000FEEF16161706E807F907C0F0121613067A
:10106000E407F50798F0621B730B840B950B39F4BA
:101070000A2661F0232B242B252B21F408950A2620
:1010800009F4A140A6958FEF811D811D089597F960
:101090009F6780E870E060E008959FEF80EC08951E
:1010A00000240A9416161706180609060895002447
:1010B0000A9412161306140605060895092E0394C1
:1010C000000C11F4882352F0BB0F40F4BF2B11F435
:1010D00060FF04C06F5F7F4F8F4F9F4F089557FD94
:1010E0009058440F551F59F05F3F71F04795880F96
:1010F00097FB991F61F09F3F79F08795089512162D
:1011000013061406551FF2CF4695F1DF08C01616D8
:1011100017061806991FF1CF869571056105089489
:101120000895E894BB2766277727CB0197F90895A0
:101130008ADF08F48FEF08950BD0C0CFB1DF28F01D
:10114000B6DF18F0952309F0A2CFA7CF1124EACF7C
:10115000C6DFA0F3959FD1F3950F50E0551F629F16
:10116000F001729FBB27F00DB11D639FAA27F00D00
:10117000B11DAA1F649F6627B00DA11D661F829F27
:101180002227B00DA11D621F739FB00DA11D621F0C
:10119000839FA00D611D221F749F3327A00D611D29
:1011A000231F849F600D211D822F762F6A2F11240B
:1011B0009F5750408AF0E1F088234AF0EE0FFF1F5E
:1011C000BB1F661F771F881F91505040A9F79E3F95
:1011D000510570F05CCFA6CF5F3FECF3983EDCF397
:1011E000869577956795B795F795E7959F5FC1F7D2
:1011F000FE2B880F911D9695879597F9089523DF0B
:10120000880B990B0895A1E21A2EAA1BBB1BFD01A6
:101210000DC0AA1FBB1FEE1FFF1FA217B307E407D5
:10122000F50720F0A21BB30BE40BF50B661F771F2D
:10123000881F991F1A9469F760957095809590950D
:101240009B01AC01BD01CF0108950DD0A59F900D6C
:10125000B49F900DA49F800D911D112408950790B7
:10126000F691E02D1994A29FB001B39FC001A39FF6
:10127000700D811D1124911DB29F700D811D1124CF
:10128000911D0895CF93DF938230910510F482E091
:1012900090E0E091EC02F091ED0220E030E0A0E07F
:1012A000B0E0309739F14081518148175907B8F0C3
:1012B0004817590771F482819381109729F013968A
:1012C0009C938E9312972CC09093ED028093EC0226
:1012D00027C02115310531F04217530718F0A90135
:1012E000DB0101C0EF019A01BD01DF010280F38142
:1012F000E02DD7CF21153105F9F0281B390B24300B
:10130000310580F48A819B816115710521F0FB0113
:101310009383828304C09093ED028093EC02FE01DC
:10132000329644C0FE01E20FF31F81939193225045
:101330003109398328833AC02091EA023091EB02C7
:10134000232B41F420910202309103023093EB02EF
:101350002093EA022091000230910102211531050B
:1013600041F42DB73EB74091040250910502241B71
:10137000350BE091EA02F091EB02E217F307A0F4DB
:101380002E1B3F0B2817390778F0AC014E5F5F4FDB
:101390002417350748F04E0F5F1F5093EB02409320
:1013A000EA028193919302C0E0E0F0E0CF01DF9187
:1013B000CF910895CF93DF93009709F487C0FC0184
:1013C000329713821282C091EC02D091ED022097E5
:1013D00081F420813181280F391F8091EA02909198
:1013E000EB028217930779F5F093EB02E093EA02A0
:1013F0006DC0DE0120E030E0AE17BF0750F412965A
:101400004D915C9113979D014115510509F1DA0148
:10141000F3CFB383A28340815181840F951F8A1734
:101420009B0771F48D919C911197840F951F0296E3
:101430009183808312968D919C91139793838283DD
:101440002115310529F4F093ED02E093EC023EC042
:10145000D9011396FC93EE9312974D915D91A40FD1
:10146000B51FEA17FB0779F480819181840F951FDE
:101470000296D90111969C938E9382819381139643
:101480009C938E931297E0E0F0E08A819B81009715
:1014900019F0FE01EC01F9CFCE01029628813981C5
:1014A000820F931F2091EA023091EB02281739072F
:1014B00069F4309729F41092ED021092EC0202C008
:1014C00013821282D093EB02C093EA02DF91CF9194
:1014D00008956F927F928F929F92AF92BF92CF9218
:1014E000DF92EF92FF920F931F93CF93DF93EC0164
:1014F000CB01209779F4DF91CF911F910F91FF904D
:10150000EF90DF90CF90BF90AF909F908F907F90A3
:101510006F90B8CEFE01E60FF71F9E0122503109F1
:10152000E217F30708F4A8C0D9010D911C91119797
:1015300006171707B0F00530110508F49BC0A80185
:10154000445051094617570708F494C00250110936
:10155000061B170B019311936D937C93CF012ADF28
:1015600089C05B01A01AB10A4E01800E911EA091A4
:10157000EC02B091ED02612C712C60E070E01097EC
:1015800009F449C0A815B905C9F5ED90FC9011976B
:10159000670142E0C40ED11CCA14DB0478F1470194
:1015A0008A189B08640142E0C40ED11C1296BC90BC
:1015B00012971396AC91B5E0CB16D10440F0B282ED
:1015C000A38391828082D9018D939C9309C00E5F81
:1015D0001F4F0E0D1F1DF90111830083EB2DFA2FF4
:1015E0006115710531F0DB011396FC93EE931297B0
:1015F00041C0F093ED02E093EC023CC06D917C9110
:1016000011976616770608F43B01BD0112960D90FE
:10161000BC91A02DB4CF6091EA027091EB026815E5
:101620007905E9F468167906D0F4409100025091EA
:1016300001024115510541F44DB75EB760910402B6
:1016400070910502461B570BE417F507A8F4F093B9
:10165000EB02E093EA02F901918380830BC012DE72
:101660007C01009749F0A801BE0122D0CE01A2DE84
:10167000C70104C0CE0102C080E090E0DF91CF91AD
:101680001F910F91FF90EF90DF90CF90BF90AF90A0
:101690009F908F907F906F9008956627772718C04E
:1016A00091117EC1803219F089508550D0F708958C
:1016B000FB01DC0102C001900D9241505040D8F76F
:1016C0000895FB01DC0101900D920020E1F70895DF
:1016D0008F929F92AF92BF92CF92DF92EF92FF9242
:1016E0000F931F93CF93DF938B016115710521F049
:1016F000DB018C9311969C93EC015E01BFEFAB1A5A
:10170000BB0A7501C8808C2D90E0CADF892B11F0CF
:10171000E501F3CFEDE2CE1208C07E01F2E0EF0E5C
:10172000F11CC980DD24D39409C02BE2C21205C08C
:101730007E0142E0E40EF11CC980D12CE701219723
:1017400043E050E06CEE70E0CE012DD1892BB9F46E
:10175000239645E050E067EE70E0CE0124D1892B5E
:1017600009F425960115110519F0D801CD93DC93E4
:10177000D11000C160E070E080E89FE704C143E061
:1017800050E064EE70E0CE010ED1892B59F40115C2
:10179000110509F4F4C0B2E0EB0EF11CF801F1827E
:1017A000E082EDC0F70160E070E0CB01C0E0D0E086
:1017B0007F01A0EDAA2EAC0C29E02A1528F14D2DB1
:1017C0004260B42E2D2D2870D2FE04C0211124C0F9
:1017D000219622C021112197A5E0B0E09B01AC0128
:1017E00034DD660F771F881F991F6A0D711D811DDB
:1017F000911D6839A9E97A078A07A9E19A0760F07B
:10180000BD2DB660BB2E08C02EEFA2120AC0D3FCBD
:1018100050C04D2D4860B42E3196D701CC90DB2CB2
:10182000C7CF2C2D2F7D253409F043C0A081AD32C8
:1018300041F4BD2DB061DB2E7F0122E0E20EF11CF0
:101840000CC07F01AB3231F04FEFE41AF40A21E013
:1018500030E006C0A2E0EA0EF11CA18122E030E0F7
:10186000A053AA3018F0E21AF30A23C0F70120E0CF
:1018700030E02038BCE03B075CF4A901440F551F61
:10188000440F551F240F351F220F331F2A0F311D00
:10189000AF014F5F5F4F7A01A081A053AA3010F4CF
:1018A000FA01E7CFD4FE03C0319521953109C20F6B
:1018B000D31FD1FE09C00115110531F0E1E0EE1A88
:1018C000F108D801ED92FC9281DB2D2D237023309D
:1018D00019F04B015C0106C04B015C01B7FAB094F2
:1018E000B7F8B09420E030E0A901C501B401D1DA25
:1018F000882309F43CC0D7FF06C0D195C195D10912
:1019000003E011E002C00BE111E06801B8E1CB1A7D
:10191000D10890E2E92EF12CCE15DF056CF0F8012C
:101920002591359145915491C501B40105DC4B01D8
:101930005C01CE19DF09F0CF04501109F594E7944A
:101940000C151D0549F78A2D880F8B2D881F8F3F99
:1019500041F020E030E0A901C501B4019ADA81111B
:1019600006C082E290E09093EF028093EE02C50100
:10197000B40109C060E070E080E89FEF04C060E05F
:1019800070E080EC9FE7DF91CF911F910F91FF9066
:10199000EF90DF90CF90BF90AF909F908F90089581
:1019A000992788270895FB01DC014150504088F0B9
:1019B0008D9181341CF08B350CF4805E659161341F
:1019C0001CF06B350CF4605E861B611171F3990B92
:0A19D0000895881BFCCFF894FFCFA8
:1019DA000000F002800044696769746520756D2013
:1019EA006E756D65726F3A20004461646F20656898
:1019FA003A200000000000BB012A03100129011B44
:101A0A00019A010D0A006E616E00696E66006F76BA
:041A1A0066002E0034
:00000001FF
